{
  "contractName": "TechServiceContract",
  "abi": [
    {
      "inputs": [
        {
          "internalType": "address",
          "name": "",
          "type": "address"
        }
      ],
      "name": "clients",
      "outputs": [
        {
          "internalType": "string",
          "name": "name",
          "type": "string"
        },
        {
          "internalType": "string",
          "name": "surname",
          "type": "string"
        },
        {
          "internalType": "string",
          "name": "addressDetails",
          "type": "string"
        },
        {
          "internalType": "string",
          "name": "taskDescription",
          "type": "string"
        },
        {
          "internalType": "bool",
          "name": "isActive",
          "type": "bool"
        }
      ],
      "stateMutability": "view",
      "type": "function"
    },
    {
      "inputs": [],
      "name": "servicePrice",
      "outputs": [
        {
          "internalType": "uint256",
          "name": "",
          "type": "uint256"
        }
      ],
      "stateMutability": "view",
      "type": "function"
    },
    {
      "inputs": [],
      "name": "technician",
      "outputs": [
        {
          "internalType": "address",
          "name": "",
          "type": "address"
        }
      ],
      "stateMutability": "view",
      "type": "function"
    },
    {
      "inputs": [
        {
          "internalType": "address",
          "name": "_technician",
          "type": "address"
        }
      ],
      "name": "setTechnician",
      "outputs": [],
      "stateMutability": "nonpayable",
      "type": "function"
    },
    {
      "inputs": [
        {
          "internalType": "string",
          "name": "_name",
          "type": "string"
        },
        {
          "internalType": "string",
          "name": "_surname",
          "type": "string"
        },
        {
          "internalType": "string",
          "name": "_addressDetails",
          "type": "string"
        },
        {
          "internalType": "string",
          "name": "_taskDescription",
          "type": "string"
        }
      ],
      "name": "addClient",
      "outputs": [],
      "stateMutability": "nonpayable",
      "type": "function"
    },
    {
      "inputs": [
        {
          "internalType": "string",
          "name": "_taskDescription",
          "type": "string"
        }
      ],
      "name": "submitTask",
      "outputs": [],
      "stateMutability": "nonpayable",
      "type": "function"
    },
    {
      "inputs": [
        {
          "internalType": "uint256",
          "name": "_price",
          "type": "uint256"
        }
      ],
      "name": "setServicePrice",
      "outputs": [],
      "stateMutability": "nonpayable",
      "type": "function"
    }
  ],
  "bytecode": "0x608060405234801561000f575f80fd5b506110258061001d5f395ff3fe608060405234801561000f575f80fd5b506004361061007b575f3560e01c8063b3ccb4ac11610059578063b3ccb4ac146100eb578063e4e3769214610109578063ec67d2d314610125578063edd3ba9a146101435761007b565b806337cb7b6c1461007f57806361eed2a91461009b5780639a7b22b9146100cf575b5f80fd5b61009960048036038101906100949190610853565b61015f565b005b6100b560048036038101906100b09190610981565b6102d1565b6040516100c6959493929190610a40565b60405180910390f35b6100e960048036038101906100e49190610aad565b610527565b005b6100f3610604565b6040516101009190610b03565b60405180910390f35b610123600480360381019061011e9190610981565b610627565b005b61012d610669565b60405161013a9190610b34565b60405180910390f35b61015d60048036038101906101589190610b77565b61066f565b005b60015f3373ffffffffffffffffffffffffffffffffffffffff1673ffffffffffffffffffffffffffffffffffffffff1681526020019081526020015f206004015f9054906101000a900460ff16156101ec576040517f08c379a00000000000000000000000000000000000000000000000000000000081526004016101e390610bec565b60405180910390fd5b6040518060a001604052808581526020018481526020018381526020018281526020016001151581525060015f3373ffffffffffffffffffffffffffffffffffffffff1673ffffffffffffffffffffffffffffffffffffffff1681526020019081526020015f205f820151815f0190816102669190610e04565b50602082015181600101908161027c9190610e04565b5060408201518160020190816102929190610e04565b5060608201518160030190816102a89190610e04565b506080820151816004015f6101000a81548160ff02191690831515021790555090505050505050565b6001602052805f5260405f205f91509050805f0180546102f090610c37565b80601f016020809104026020016040519081016040528092919081815260200182805461031c90610c37565b80156103675780601f1061033e57610100808354040283529160200191610367565b820191905f5260205f20905b81548152906001019060200180831161034a57829003601f168201915b50505050509080600101805461037c90610c37565b80601f01602080910402602001604051908101604052809291908181526020018280546103a890610c37565b80156103f35780601f106103ca576101008083540402835291602001916103f3565b820191905f5260205f20905b8154815290600101906020018083116103d657829003601f168201915b50505050509080600201805461040890610c37565b80601f016020809104026020016040519081016040528092919081815260200182805461043490610c37565b801561047f5780601f106104565761010080835404028352916020019161047f565b820191905f5260205f20905b81548152906001019060200180831161046257829003601f168201915b50505050509080600301805461049490610c37565b80601f01602080910402602001604051908101604052809291908181526020018280546104c090610c37565b801561050b5780601f106104e25761010080835404028352916020019161050b565b820191905f5260205f20905b8154815290600101906020018083116104ee57829003601f168201915b505050505090806004015f9054906101000a900460ff16905085565b60015f3373ffffffffffffffffffffffffffffffffffffffff1673ffffffffffffffffffffffffffffffffffffffff1681526020019081526020015f206004015f9054906101000a900460ff166105b3576040517f08c379a00000000000000000000000000000000000000000000000000000000081526004016105aa90610f43565b60405180910390fd5b8060015f3373ffffffffffffffffffffffffffffffffffffffff1673ffffffffffffffffffffffffffffffffffffffff1681526020019081526020015f2060030190816106009190610e04565b5050565b5f8054906101000a900473ffffffffffffffffffffffffffffffffffffffff1681565b805f806101000a81548173ffffffffffffffffffffffffffffffffffffffff021916908373ffffffffffffffffffffffffffffffffffffffff16021790555050565b60025481565b5f8054906101000a900473ffffffffffffffffffffffffffffffffffffffff1673ffffffffffffffffffffffffffffffffffffffff163373ffffffffffffffffffffffffffffffffffffffff16146106fc576040517f08c379a00000000000000000000000000000000000000000000000000000000081526004016106f390610fd1565b60405180910390fd5b8060028190555050565b5f604051905090565b5f80fd5b5f80fd5b5f80fd5b5f80fd5b5f601f19601f8301169050919050565b7f4e487b71000000000000000000000000000000000000000000000000000000005f52604160045260245ffd5b6107658261071f565b810181811067ffffffffffffffff821117156107845761078361072f565b5b80604052505050565b5f610796610706565b90506107a2828261075c565b919050565b5f67ffffffffffffffff8211156107c1576107c061072f565b5b6107ca8261071f565b9050602081019050919050565b828183375f83830152505050565b5f6107f76107f2846107a7565b61078d565b9050828152602081018484840111156108135761081261071b565b5b61081e8482856107d7565b509392505050565b5f82601f83011261083a57610839610717565b5b813561084a8482602086016107e5565b91505092915050565b5f805f806080858703121561086b5761086a61070f565b5b5f85013567ffffffffffffffff81111561088857610887610713565b5b61089487828801610826565b945050602085013567ffffffffffffffff8111156108b5576108b4610713565b5b6108c187828801610826565b935050604085013567ffffffffffffffff8111156108e2576108e1610713565b5b6108ee87828801610826565b925050606085013567ffffffffffffffff81111561090f5761090e610713565b5b61091b87828801610826565b91505092959194509250565b5f73ffffffffffffffffffffffffffffffffffffffff82169050919050565b5f61095082610927565b9050919050565b61096081610946565b811461096a575f80fd5b50565b5f8135905061097b81610957565b92915050565b5f602082840312156109965761099561070f565b5b5f6109a38482850161096d565b91505092915050565b5f81519050919050565b5f82825260208201905092915050565b5f5b838110156109e35780820151818401526020810190506109c8565b5f8484015250505050565b5f6109f8826109ac565b610a0281856109b6565b9350610a128185602086016109c6565b610a1b8161071f565b840191505092915050565b5f8115159050919050565b610a3a81610a26565b82525050565b5f60a0820190508181035f830152610a5881886109ee565b90508181036020830152610a6c81876109ee565b90508181036040830152610a8081866109ee565b90508181036060830152610a9481856109ee565b9050610aa36080830184610a31565b9695505050505050565b5f60208284031215610ac257610ac161070f565b5b5f82013567ffffffffffffffff811115610adf57610ade610713565b5b610aeb84828501610826565b91505092915050565b610afd81610946565b82525050565b5f602082019050610b165f830184610af4565b92915050565b5f819050919050565b610b2e81610b1c565b82525050565b5f602082019050610b475f830184610b25565b92915050565b610b5681610b1c565b8114610b60575f80fd5b50565b5f81359050610b7181610b4d565b92915050565b5f60208284031215610b8c57610b8b61070f565b5b5f610b9984828501610b63565b91505092915050565b7f436c69656e7420616c72656164792061646465640000000000000000000000005f82015250565b5f610bd66014836109b6565b9150610be182610ba2565b602082019050919050565b5f6020820190508181035f830152610c0381610bca565b9050919050565b7f4e487b71000000000000000000000000000000000000000000000000000000005f52602260045260245ffd5b5f6002820490506001821680610c4e57607f821691505b602082108103610c6157610c60610c0a565b5b50919050565b5f819050815f5260205f209050919050565b5f6020601f8301049050919050565b5f82821b905092915050565b5f60088302610cc37fffffffffffffffffffffffffffffffffffffffffffffffffffffffffffffffff82610c88565b610ccd8683610c88565b95508019841693508086168417925050509392505050565b5f819050919050565b5f610d08610d03610cfe84610b1c565b610ce5565b610b1c565b9050919050565b5f819050919050565b610d2183610cee565b610d35610d2d82610d0f565b848454610c94565b825550505050565b5f90565b610d49610d3d565b610d54818484610d18565b505050565b5b81811015610d7757610d6c5f82610d41565b600181019050610d5a565b5050565b601f821115610dbc57610d8d81610c67565b610d9684610c79565b81016020851015610da5578190505b610db9610db185610c79565b830182610d59565b50505b505050565b5f82821c905092915050565b5f610ddc5f1984600802610dc1565b1980831691505092915050565b5f610df48383610dcd565b9150826002028217905092915050565b610e0d826109ac565b67ffffffffffffffff811115610e2657610e2561072f565b5b610e308254610c37565b610e3b828285610d7b565b5f60209050601f831160018114610e6c575f8415610e5a578287015190505b610e648582610de9565b865550610ecb565b601f198416610e7a86610c67565b5f5b82811015610ea157848901518255600182019150602085019450602081019050610e7c565b86831015610ebe5784890151610eba601f891682610dcd565b8355505b6001600288020188555050505b505050505050565b7f4f6e6c792061637469766520636c69656e742063616e2063616c6c20746869735f8201527f2066756e6374696f6e0000000000000000000000000000000000000000000000602082015250565b5f610f2d6029836109b6565b9150610f3882610ed3565b604082019050919050565b5f6020820190508181035f830152610f5a81610f21565b9050919050565b7f4f6e6c7920746563686e696369616e2063616e2063616c6c20746869732066755f8201527f6e6374696f6e0000000000000000000000000000000000000000000000000000602082015250565b5f610fbb6026836109b6565b9150610fc682610f61565b604082019050919050565b5f6020820190508181035f830152610fe881610faf565b905091905056fea2646970667358221220ae4dbd42981266b026a5438eb27e199176473e6a301a21361869fc615e555a0064736f6c63430008150033",
  "immutableReferences": {},
  "source": "// contracts/TechServiceContract.sol\r\n// SPDX-License-Identifier: MIT\r\npragma solidity ^0.8.0;\r\n\r\ncontract TechServiceContract {\r\n    address public technician;\r\n    mapping(address => Client) public clients;\r\n    uint256 public servicePrice;\r\n\r\n    struct Client {\r\n        string name;\r\n        string surname;\r\n        string addressDetails;\r\n        string taskDescription;\r\n        bool isActive;\r\n    }\r\n\r\n    modifier onlyTechnician() {\r\n        require(msg.sender == technician, \"Only technician can call this function\");\r\n        _;\r\n    }\r\n\r\n    modifier onlyClient() {\r\n        require(clients[msg.sender].isActive, \"Only active client can call this function\");\r\n        _;\r\n    }\r\n\r\n    function setTechnician(address _technician) public {\r\n        technician = _technician;\r\n    }\r\n\r\n    function addClient(\r\n        string memory _name,\r\n        string memory _surname,\r\n        string memory _addressDetails,\r\n        string memory _taskDescription\r\n    ) public {\r\n        require(!clients[msg.sender].isActive, \"Client already added\");\r\n        clients[msg.sender] = Client({\r\n            name: _name,\r\n            surname: _surname,\r\n            addressDetails: _addressDetails,\r\n            taskDescription: _taskDescription,\r\n            isActive: true\r\n        });\r\n    }\r\n\r\n    function submitTask(string memory _taskDescription) public onlyClient {\r\n        clients[msg.sender].taskDescription = _taskDescription;\r\n    }\r\n\r\n    function setServicePrice(uint256 _price) public onlyTechnician {\r\n        servicePrice = _price;\r\n    }\r\n}\r\n",
  "sourcePath": "C:\\Users\\eshde\\OneDrive\\ \\Dapp\\TechServiceDapp\\contracts\\TechServiceContract.sol",
  "compiler": {
    "name": "solc",
    "version": "0.8.21+commit.d9974bed.Emscripten.clang"
  },
  "schemaVersion": "3.4.16",
  "updatedAt": "2023-12-26T18:26:09.316Z",
  "devdoc": {
    "kind": "dev",
    "methods": {},
    "version": 1
  },
  "userdoc": {
    "kind": "user",
    "methods": {},
    "version": 1
  }
}